:100000000C946C000C9479010C94A3010C94CD0118
:100010000C9442020C94B7020C9494000C9494003B
:100020000C9494000C9494000C9494000C94940000
:100030000C9494000C9494000C9494000C949400F0
:100040000C9472030C9494000C94B2050C94EE057D
:100050000C9494000C9494000C9494000C949400D0
:100060000C9494000C94940000010203040506070C
:10007000000102030405000102030405000000075B
:100080000002010000030406000000000000000060
:10009000010204081020408001020408102001021F
:1000A00004081020040404040404040402020202EC
:1000B00002020303030303030000000023002600E1
:1000C000290000000000250028002B00000000008F
:1000D000240027002A00290611241FBECFEFD8E0F4
:1000E000DEBFCDBF11E0A0E0B1E0E8E5FDE002C079
:1000F00005900D92A031B107D9F711E0A0E1B1E070
:1001000001C01D92A83FB107E1F710E0C8EDD0E0B3
:1001100004C02297FE010E94A606C63DD107C9F77A
:100120000E9409050C94A1060C940000CF9389E06D
:100130000E94E004C1E0892B09F0C0E06C2F88E048
:100140000E94A9046C2F8DE0CF910C94A904A82FD4
:10015000AF7787FD05C08A2F8250823008F49CC09B
:10016000B0E0FD01E057FF4F2491FD01EC55FF4F3A
:100170008491433011F04130B9F4823031F49091E0
:100180001801922B909318010FC0833031F4909195
:100190001501922B9093150107C0843029F490919A
:1001A0001201922B9093120141504230B8F48230E8
:1001B00031F490911701922B909317010FC0833067
:1001C00031F490911401922B9093140107C0843064
:1001D00029F490911101922B90931101FD01E8599E
:1001E000FF4FA4918230C9F4B0E0AA0FBB1FAB5CF3
:1001F000BE4F6D937C93ECEBF0E085919491DC0124
:100200008C91809316018BE690E090934601809349
:10021000450180916800816035C08330C9F4B0E049
:10022000AA0FBB1FA75DBE4F6D937C93EEEBF0E072
:1002300085919491DC018C91809313018CE690E080
:1002400090934601809345018091680082601AC0B6
:100250008430D1F4B0E0AA0FBB1FA75EBE4F6D93F0
:100260007C93E0ECF0E085919491DC018C9180939B
:1002700010018DE690E090934601809345018091B6
:100280006800846080936800E0914501F091460128
:100290008081822B808308959FB7F894A23099F4CF
:1002A0007093420160934101E898809169008C7FCE
:1002B0008093690080916900842B80936900E09AA3
:1002C000E89A9FBF08957093440160934301E998B1
:1002D00080916900837F809369008091690024E0A8
:1002E000429FA0011124842B80936900E19AE99A2E
:1002F000E8CF1F920F920FB60F9211242F933F93C6
:100300004F935F936F937F938F939F93AF93BF931D
:10031000EF93FF9382E080934701E0914101F091D8
:1003200042010995FF91EF91BF91AF919F918F91FC
:100330007F916F915F914F913F912F910F900FBEE1
:100340000F901F9018951F920F920FB60F921124C5
:100350002F933F934F935F936F937F938F939F93CD
:10036000AF93BF93EF93FF9383E080934701E091B6
:100370004301F09144010995FF91EF91BF91AF9135
:100380009F918F917F916F915F914F913F912F91AD
:100390000F900FBE0F901F9018951F920F920FB6DF
:1003A0000F9211242F933F934F935F936F937F93FB
:1003B0008F939F93AF93BF93CF93EF93FF9393B19B
:1003C000C09116012091180130911701892F809555
:1003D00083232923822B20916B00C927C223C823A2
:1003E00090931601CC23E1F1C0FF08C088E0809310
:1003F0004701E0913501F09136010995C1FF08C030
:1004000089E080934701E0913701F0913801099527
:10041000C2FF08C08AE080934701E0913901F09162
:100420003A010995C3FF08C08BE080934701E09132
:100430003B01F0913C010995C4FF08C08CE080931A
:100440004701E0913D01F0913E010995C5FF08C0CB
:100450008DE080934701E0913F01F09140010995C3
:10046000FF91EF91CF91BF91AF919F918F917F912C
:100470006F915F914F913F912F910F900FBE0F9011
:100480001F9018951F920F920FB60F9211242F9361
:100490003F934F935F936F937F938F939F93AF930C
:1004A000BF93CF93EF93FF9396B1C0911301209127
:1004B000150130911401892F809583232923822BE4
:1004C00020916C00C927C223C82390931301CC2329
:1004D000E1F1C0FF08C08EE080934701E09129015F
:1004E000F0912A010995C1FF08C08FE08093470170
:1004F000E0912B01F0912C010995C2FF08C080E129
:1005000080934701E0912D01F0912E010995C3FFE1
:1005100008C081E180934701E0912F01F091300103
:100520000995C4FF08C082E180934701E091310141
:10053000F09132010995C5FF08C083E1809347011E
:10054000E0913301F09134010995FF91EF91CF9142
:10055000BF91AF919F918F917F916F915F914F91DB
:100560003F912F910F900FBE0F901F9018951F92E3
:100570000F920FB60F9211242F933F934F935F93D7
:100580006F937F938F939F93AF93BF93CF93EF938B
:10059000FF9399B1C0911001209112013091110186
:1005A000892F809583232923822B20916D00C927D1
:1005B000C223C82390931001CC2309F44FC0C0FF7D
:1005C00007C010924701E0911901F0911A010995B5
:1005D000C1FF08C081E080934701E0911B01F091C9
:1005E0001C010995C2FF08C082E080934701E09199
:1005F0001D01F0911E010995C3FF08C083E080939F
:100600004701E0911F01F09120010995C4FF08C046
:1006100084E080934701E0912101F0912201099546
:10062000C5FF08C085E080934701E0912301F09168
:1006300024010995C6FF08C086E080934701E09138
:100640002501F09126010995C7FF08C087E0809336
:100650004701E0912701F09128010995FF91EF9161
:10066000CF91BF91AF919F918F917F916F915F914A
:100670004F913F912F910F900FBE0F901F901895A3
:1006800061E08DE00E94710460E089E00E947104E5
:1006900061E088E00E94710460E089E00E94A904A2
:1006A00060E08DE00E94A90461E088E00E94A90456
:1006B00041E066E970E089E00C94A70061E08DE01C
:1006C0000E94A90462E370E080E090E00E94E603EB
:1006D00060E08DE00E94A90460ED77E080E090E0AA
:1006E0000C94E6031F920F920FB60F9211242F93D2
:1006F0003F938F939F93AF93BF93809148019091C5
:100700004901A0914A01B0914B0130915001232F32
:100710002A5F2D3720F40296A11DB11D05C0232F9D
:1007200027570396A11DB11D2093500180934801C6
:1007300090934901A0934A01B0934B0180914C01E1
:1007400090914D01A0914E01B0914F010196A11DD4
:10075000B11D80934C0190934D01A0934E01B09335
:100760004F01BF91AF919F918F913F912F910F902A
:100770000FBE0F901F9018950F931F939FB7F8947B
:1007800000914C0110914D0120914E0130914F018B
:1007900086B5A89B06C08F3F21F00F5F1F4F2F4FDC
:1007A0003F4F9FBF322F212F102F0027080F111D01
:1007B000211D311D43E0000F111F221F331F4A95D9
:1007C000D1F7B801C9011F910F910895CF92DF921F
:1007D000EF92FF92CF93DF936B017C010E94BC03E9
:1007E000EB010EC00E94BC036C1B7D0B683E734086
:1007F00038F081E0C81AD108E108F108C851DC4F8F
:10080000C114D104E104F10469F7DF91CF91FF90A5
:10081000EF90DF90CF900895789484B5826084BD86
:1008200084B5816084BD85B5826085BD85B58160F4
:1008300085BDEEE6F0E0808181608083E1E8F0E054
:100840001082808182608083808181608083E0E883
:10085000F0E0808181608083E1EBF0E08081846062
:100860008083E0EBF0E0808181608083EAE7F0E064
:1008700080818460808380818260808380818160C8
:1008800080838081806880831092C10008958330C6
:1008900069F028F48130A1F0823011F514C086305F
:1008A000B1F08730C1F08430D9F404C08091800069
:1008B0008F7703C0809180008F7D809380000895A2
:1008C00084B58F7702C084B58F7D84BD08958091F3
:1008D000B0008F7703C08091B0008F7D8093B0000F
:1008E0000895CF93DF9390E0FC01E057FF4F4491D0
:1008F000FC01EC55FF4F8491882341F190E0880F73
:10090000991FFC01E453FF4F25913491D9018E5377
:100910009F4FFC0185919491C82FD92F9FB7F894D0
:100920008C91611106C0409584238C938881842327
:1009300008C0623041F4242F209582238C93888153
:10094000842B888302C0842B8C939FBFDF91CF912F
:1009500008950F931F93CF93DF931F92CDB7DEB708
:10096000282F30E0F901E458FF4F8491F901E05756
:10097000FF4F1491F901EC55FF4F04910023D1F082
:10098000882321F069830E9447046981E02FF0E009
:10099000EE0FFF1FEE53FF4F85919491DC019FB73F
:1009A000F8948C91611103C01095812301C0812BB3
:1009B0008C939FBF0F90DF91CF911F910F9108955E
:1009C000CF93DF93282F30E0F901E458FF4F849153
:1009D000F901E057FF4FD491F901EC55FF4FC49155
:1009E000CC2389F081110E944704EC2FF0E0EE0F38
:1009F000FF1FE854FF4F85919491DC018C918D236A
:100A000021E030E011F420E030E0C901DF91CF9126
:100A100008950E940C040E944003C5EED5E00E9498
:100A20005E032097E1F30E94E505F9CFFC01848580
:100A30009585FC01E05CFF4F20813181FC01EE5B7C
:100A4000FF4F80819181281B390B2F733327C901F8
:100A50000895FC0184859585FC01E05CFF4F408191
:100A60005181FC01EE5BFF4F20813181421753071A
:100A700041F00190F081E02DE80FF91F208130E076
:100A800002C02FEF3FEFC9010895FC0184859585D1
:100A9000FC01E05CFF4F40815181FC01EE5BFF4FA8
:100AA000208131814217530781F0A081B181A80FC5
:100AB000B91F8C91208131812F5F3F4F2F733327D6
:100AC00031832083282F30E002C02FEF3FEFC90190
:100AD0000895FC0186859785FC01E05CFF4FDC01F1
:100AE000AE5BBF4F408151812D913C9111974217D0
:100AF0005307C1F70895CF93DF93FC01868597854F
:100B0000DC01A05CBF4F2D913C9111972F5F3F4FAF
:100B10002F733327EC01CE5BDF4F488159812417B7
:100B20003507D9F30D90BC91A02DA80FB91F6C9378
:100B3000A685B785A05CBF4F11963C932E93A689DE
:100B4000B7892C9181E090E0058C02C0880F991F35
:100B50000A94E2F7282B2C9381E090E0DF91CF916B
:100B6000089508951F920F920FB60F9211242F939C
:100B70003F934F938F939F93EF93FF934091C600C2
:100B80008091F4019091F50101968F73992720913E
:100B9000F6013091F7018217930759F0E091F401C3
:100BA000F091F501EC54FE4F40839093F501809352
:100BB000F401FF91EF919F918F914F913F912F9170
:100BC0000F900FBE0F901F90189581E591E00E9445
:100BD0001605892B11F00C94B10508951F920F9200
:100BE0000FB60F9211242F933F938F939F93EF9300
:100BF000FF932091B0013091B1018091B2019091A9
:100C0000B3012817390731F48091C1008F7D80939B
:100C1000C10014C0E091B201F091B301E059FE4F60
:100C200020818091B2019091B30101968F73992731
:100C30009093B3018093B2012093C600FF91EF918E
:100C40009F918F913F912F910F900FBE0F901F900A
:100C50001895109254011092530188EE93E0A0E091
:100C6000B0E08093550190935601A0935701B09343
:100C7000580184E091E0909352018093510184EBFC
:100C800091E090935E0180935D0180E791E0909305
:100C9000600180935F0185EC90E090936201809306
:100CA000610184EC90E0909364018093630180EC97
:100CB00090E0909366018093650181EC90E09093C1
:100CC00068018093670186EC90E090936A018093BD
:100CD000690184E080936B0183E080936C0187E07D
:100CE00080936D0185E080936E0181E080936F01B8
:100CF0000895CF92DF92EF92FF920F931F93CF93BD
:100D0000DF936C01EB017A01E60EF71E00E010E0C4
:100D10000BC06991D601ED91FC910190F081E02D1D
:100D2000C6010995080F191FCE15DF0591F7C801F7
:100D3000DF91CF911F910F91FF90EF90DF90CF90B7
:100D40000895F8940C94AA06EE0FFF1F0590F491F5
:080D5000E02D0994F894FFCF97
:100D5800000000007B05790616054505290569058B
:00000001FF
